{
  "_format": "hh-sol-artifact-1",
  "contractName": "ECAuction",
  "sourceName": "contracts/ECAuction.sol",
  "abi": [
    {
      "inputs": [
        {
          "internalType": "uint256",
          "name": "_start",
          "type": "uint256"
        },
        {
          "internalType": "uint256",
          "name": "_end",
          "type": "uint256"
        },
        {
          "internalType": "uint256",
          "name": "_reserve",
          "type": "uint256"
        },
        {
          "internalType": "uint256",
          "name": "_increment",
          "type": "uint256"
        },
        {
          "internalType": "address payable",
          "name": "_owner_wallet",
          "type": "address"
        },
        {
          "internalType": "address payable",
          "name": "_creator_wallet",
          "type": "address"
        },
        {
          "internalType": "uint256",
          "name": "_creator_fee",
          "type": "uint256"
        },
        {
          "internalType": "address",
          "name": "_NFTcontract",
          "type": "address"
        }
      ],
      "stateMutability": "nonpayable",
      "type": "constructor"
    },
    {
      "anonymous": false,
      "inputs": [
        {
          "indexed": false,
          "internalType": "address",
          "name": "addr",
          "type": "address"
        },
        {
          "indexed": false,
          "internalType": "uint256",
          "name": "amount",
          "type": "uint256"
        }
      ],
      "name": "AuctionWinningAmountPaid",
      "type": "event"
    },
    {
      "anonymous": false,
      "inputs": [
        {
          "indexed": false,
          "internalType": "address",
          "name": "bidder",
          "type": "address"
        },
        {
          "indexed": false,
          "internalType": "uint256",
          "name": "value",
          "type": "uint256"
        },
        {
          "indexed": false,
          "internalType": "uint256",
          "name": "time",
          "type": "uint256"
        }
      ],
      "name": "Bid",
      "type": "event"
    },
    {
      "anonymous": false,
      "inputs": [
        {
          "indexed": true,
          "internalType": "address",
          "name": "previousOwner",
          "type": "address"
        },
        {
          "indexed": true,
          "internalType": "address",
          "name": "newOwner",
          "type": "address"
        }
      ],
      "name": "OwnershipTransferred",
      "type": "event"
    },
    {
      "inputs": [],
      "name": "NFTContract",
      "outputs": [
        {
          "internalType": "contract IECNFT",
          "name": "",
          "type": "address"
        }
      ],
      "stateMutability": "view",
      "type": "function"
    },
    {
      "inputs": [],
      "name": "auction_end",
      "outputs": [
        {
          "internalType": "uint256",
          "name": "",
          "type": "uint256"
        }
      ],
      "stateMutability": "view",
      "type": "function"
    },
    {
      "inputs": [],
      "name": "auction_start",
      "outputs": [
        {
          "internalType": "uint256",
          "name": "",
          "type": "uint256"
        }
      ],
      "stateMutability": "view",
      "type": "function"
    },
    {
      "inputs": [],
      "name": "bid",
      "outputs": [],
      "stateMutability": "payable",
      "type": "function"
    },
    {
      "inputs": [],
      "name": "bid_count",
      "outputs": [
        {
          "internalType": "uint256",
          "name": "",
          "type": "uint256"
        }
      ],
      "stateMutability": "view",
      "type": "function"
    },
    {
      "inputs": [
        {
          "internalType": "uint256",
          "name": "",
          "type": "uint256"
        }
      ],
      "name": "bid_history",
      "outputs": [
        {
          "internalType": "address",
          "name": "sender",
          "type": "address"
        },
        {
          "internalType": "uint256",
          "name": "value",
          "type": "uint256"
        },
        {
          "internalType": "uint256",
          "name": "time",
          "type": "uint256"
        }
      ],
      "stateMutability": "view",
      "type": "function"
    },
    {
      "inputs": [],
      "name": "creator_fee_percentage",
      "outputs": [
        {
          "internalType": "uint256",
          "name": "",
          "type": "uint256"
        }
      ],
      "stateMutability": "view",
      "type": "function"
    },
    {
      "inputs": [],
      "name": "creator_wallet",
      "outputs": [
        {
          "internalType": "address payable",
          "name": "",
          "type": "address"
        }
      ],
      "stateMutability": "view",
      "type": "function"
    },
    {
      "inputs": [],
      "name": "drain",
      "outputs": [],
      "stateMutability": "nonpayable",
      "type": "function"
    },
    {
      "inputs": [],
      "name": "extend_time",
      "outputs": [
        {
          "internalType": "uint256",
          "name": "",
          "type": "uint256"
        }
      ],
      "stateMutability": "view",
      "type": "function"
    },
    {
      "inputs": [],
      "name": "getLatestBid",
      "outputs": [
        {
          "internalType": "address",
          "name": "sender",
          "type": "address"
        },
        {
          "internalType": "uint256",
          "name": "value",
          "type": "uint256"
        },
        {
          "internalType": "uint256",
          "name": "time",
          "type": "uint256"
        }
      ],
      "stateMutability": "view",
      "type": "function"
    },
    {
      "inputs": [],
      "name": "getTimestamp",
      "outputs": [
        {
          "internalType": "uint256",
          "name": "",
          "type": "uint256"
        }
      ],
      "stateMutability": "view",
      "type": "function"
    },
    {
      "inputs": [],
      "name": "isAuctionActive",
      "outputs": [
        {
          "internalType": "bool",
          "name": "",
          "type": "bool"
        }
      ],
      "stateMutability": "view",
      "type": "function"
    },
    {
      "inputs": [
        {
          "internalType": "address",
          "name": "",
          "type": "address"
        },
        {
          "internalType": "address",
          "name": "",
          "type": "address"
        },
        {
          "internalType": "uint256",
          "name": "receivedTokenId",
          "type": "uint256"
        },
        {
          "internalType": "bytes",
          "name": "",
          "type": "bytes"
        }
      ],
      "name": "onERC721Received",
      "outputs": [
        {
          "internalType": "bytes4",
          "name": "",
          "type": "bytes4"
        }
      ],
      "stateMutability": "nonpayable",
      "type": "function"
    },
    {
      "inputs": [],
      "name": "owner",
      "outputs": [
        {
          "internalType": "address",
          "name": "",
          "type": "address"
        }
      ],
      "stateMutability": "view",
      "type": "function"
    },
    {
      "inputs": [],
      "name": "owner_wallet",
      "outputs": [
        {
          "internalType": "address payable",
          "name": "",
          "type": "address"
        }
      ],
      "stateMutability": "view",
      "type": "function"
    },
    {
      "inputs": [],
      "name": "price_increment",
      "outputs": [
        {
          "internalType": "uint256",
          "name": "",
          "type": "uint256"
        }
      ],
      "stateMutability": "view",
      "type": "function"
    },
    {
      "inputs": [],
      "name": "price_reserve",
      "outputs": [
        {
          "internalType": "uint256",
          "name": "",
          "type": "uint256"
        }
      ],
      "stateMutability": "view",
      "type": "function"
    },
    {
      "inputs": [],
      "name": "processAuction",
      "outputs": [],
      "stateMutability": "nonpayable",
      "type": "function"
    },
    {
      "inputs": [],
      "name": "processed",
      "outputs": [
        {
          "internalType": "bool",
          "name": "",
          "type": "bool"
        }
      ],
      "stateMutability": "view",
      "type": "function"
    },
    {
      "inputs": [],
      "name": "ready",
      "outputs": [
        {
          "internalType": "bool",
          "name": "",
          "type": "bool"
        }
      ],
      "stateMutability": "view",
      "type": "function"
    },
    {
      "inputs": [],
      "name": "renounceOwnership",
      "outputs": [],
      "stateMutability": "nonpayable",
      "type": "function"
    },
    {
      "inputs": [
        {
          "internalType": "address",
          "name": "_tracker",
          "type": "address"
        },
        {
          "internalType": "uint256",
          "name": "id",
          "type": "uint256"
        }
      ],
      "name": "retrieve721",
      "outputs": [],
      "stateMutability": "nonpayable",
      "type": "function"
    },
    {
      "inputs": [
        {
          "internalType": "address",
          "name": "_tracker",
          "type": "address"
        },
        {
          "internalType": "uint256",
          "name": "amount",
          "type": "uint256"
        }
      ],
      "name": "retrieveERC20",
      "outputs": [],
      "stateMutability": "nonpayable",
      "type": "function"
    },
    {
      "inputs": [
        {
          "internalType": "address",
          "name": "newOwner",
          "type": "address"
        }
      ],
      "name": "transferOwnership",
      "outputs": [],
      "stateMutability": "nonpayable",
      "type": "function"
    }
  ],
  "bytecode": "0x610180604052610258610100523480156200001957600080fd5b506040516200193b3803806200193b83398181016040526101008110156200004057600080fd5b508051602082015160408301516060840151608085015160a086015160c087015160e09097015195969495939492939192909160006200007f62000227565b600080546001600160a01b0319166001600160a01b0383169081178255604051929350917f8be0079c531659141344cd1fd0a4f28419497f9722a3daafe3b4186f6b6457e0908290a350868810620001095760405162461bcd60e51b81526004018080602001828103825260388152602001806200188e6038913960400191505060405180910390fd5b6001600160a01b038416620001505760405162461bcd60e51b8152600401808060200182810382526024815260200180620018c66024913960400191505060405180910390fd5b6001600160a01b038316620001975760405162461bcd60e51b8152600401808060200182810382526026815260200180620018ea6026913960400191505060405180910390fd5b6001600160a01b038116620001de5760405162461bcd60e51b815260040180806020018281038252602b81526020018062001910602b913960400191505060405180910390fd5b60e09790975260039590955561012093909352610140919091526001600160601b0319606091821b811660a05291811b821660805260c09290925291901b16610160526200022b565b3390565b60805160601c60a05160601c60c05160e0516101005161012051610140516101605160601c6115c5620002c96000398061055e52806109ee5280610af85280610c225250806108865280610eea5250806107f552806111b652508061078052806108fb5280610932525080610eb7528061116e525080610a185280610c92525080610d31528061113652508061052f5280610cda52506115c56000f3fe6080604052600436106101665760003560e01c80636defbf80116100d15780639890220b1161008a578063c458b65a11610064578063c458b65a146104bb578063d1b4b9a3146104d0578063ea3e8c26146104e5578063f2fde38b146104fa57610166565b80639890220b14610458578063a5b3abfb1461046d578063ad31f3f4146104a657610166565b80636defbf80146103da578063715018a6146103ef57806375e51af91461040457806378f45340146104195780638da5cb5b1461042e578063919b2f921461044357610166565b8063292b264111610123578063292b26411461030b5780632ce5c2841461035d57806331c2273b146103865780633b3c6b061461039b5780633b8b0b35146103b05780635d7b5432146103c557610166565b8063115a25b91461016b578063150b7a021461019c57806317fd1e2f1461028c578063188ec356146102c75780631971fecb146102ee5780631998aeef14610303575b600080fd5b34801561017757600080fd5b5061018061052d565b604080516001600160a01b039092168252519081900360200190f35b3480156101a857600080fd5b5061026f600480360360808110156101bf57600080fd5b6001600160a01b038235811692602081013590911691604082013591908101906080810160608201356401000000008111156101fa57600080fd5b82018360208201111561020c57600080fd5b8035906020019184600183028401116401000000008311171561022e57600080fd5b91908080601f016020809104026020016040519081016040528093929190818152602001838380828437600092019190915250929550610551945050505050565b604080516001600160e01b03199092168252519081900360200190f35b34801561029857600080fd5b506102c5600480360360408110156102af57600080fd5b506001600160a01b03813516906020013561063e565b005b3480156102d357600080fd5b506102dc610779565b60408051918252519081900360200190f35b3480156102fa57600080fd5b506102dc61077e565b6102c56107a2565b34801561031757600080fd5b506103356004803603602081101561032e57600080fd5b50356109b0565b604080516001600160a01b039094168452602084019290925282820152519081900360600190f35b34801561036957600080fd5b506103726109dc565b604080519115158252519081900360200190f35b34801561039257600080fd5b506101806109ec565b3480156103a757600080fd5b506102dc610a10565b3480156103bc57600080fd5b506102dc610a16565b3480156103d157600080fd5b506102c5610a3a565b3480156103e657600080fd5b50610372610dcd565b3480156103fb57600080fd5b506102c5610ddd565b34801561041057600080fd5b50610335610e89565b34801561042557600080fd5b506102dc610eb5565b34801561043a57600080fd5b50610180610ed9565b34801561044f57600080fd5b506102dc610ee8565b34801561046457600080fd5b506102c5610f0c565b34801561047957600080fd5b506102c56004803603604081101561049057600080fd5b506001600160a01b038135169060200135611008565b3480156104b257600080fd5b50610180611134565b3480156104c757600080fd5b506102dc611158565b3480156104dc57600080fd5b5061037261115e565b3480156104f157600080fd5b506102dc6111b4565b34801561050657600080fd5b506102c56004803603602081101561051d57600080fd5b50356001600160a01b03166111d8565b7f000000000000000000000000000000000000000000000000000000000000000081565b6000336001600160a01b037f000000000000000000000000000000000000000000000000000000000000000016146105d0576040805162461bcd60e51b815260206004820152601b60248201527f4d757374206265204e4654436f6e747261637420616464726573730000000000604482015290519081900360640190fd5b8260011461061a576040805162461bcd60e51b81526020600482015260126024820152714d75737420626520746f6b656e206964203160701b604482015290519081900360640190fd5b506000805460ff60a01b1916600160a01b179055630a85bd0160e11b949350505050565b6106466112da565b6001600160a01b0316610657610ed9565b6001600160a01b0316146106a0576040805162461bcd60e51b81526020600482018190526024820152600080516020611570833981519152604482015290519081900360640190fd5b600054600160a81b900460ff166106fa576040805162461bcd60e51b8152602060048201526019602482015278105d58dd1a5bdb881b5d5cdd081899481c1c9bd8d95cdcd959603a1b604482015290519081900360640190fd5b6040805163a9059cbb60e01b81523360048201526024810183905290516001600160a01b0384169163a9059cbb9160448083019260209291908290030181600087803b15801561074957600080fd5b505af115801561075d573d6000803e3d6000fd5b505050506040513d602081101561077357600080fd5b50505050565b425b90565b7f000000000000000000000000000000000000000000000000000000000000000081565b6107aa61115e565b6107f3576040805162461bcd60e51b815260206004820152601560248201527441756374696f6e206973206e6f742061637469766560581b604482015290519081900360640190fd5b7f0000000000000000000000000000000000000000000000000000000000000000341015610868576040805162461bcd60e51b815260206004820152601c60248201527f426964206d757374206265206174206c65617374207265736572766500000000604482015290519081900360640190fd5b6002546000908152600160208190526040909120908101546108aa907f00000000000000000000000000000000000000000000000000000000000000006112de565b3410156108e85760405162461bcd60e51b815260040180806020018281038252603281526020018061151d6032913960400191505060405180910390fd5b6108f23334611341565b60035461091f907f00000000000000000000000000000000000000000000000000000000000000006113d9565b610927610779565b11156109635761095f7f0000000000000000000000000000000000000000000000000000000000000000610959610779565b906112de565b6003555b600160025411156109ad57805460018201546040516001600160a01b039092169181156108fc0291906000818181858888f193505050501580156109ab573d6000803e3d6000fd5b505b50565b60016020819052600091825260409091208054918101546002909101546001600160a01b039092169183565b600054600160a81b900460ff1681565b7f000000000000000000000000000000000000000000000000000000000000000081565b60025481565b7f000000000000000000000000000000000000000000000000000000000000000081565b600354610a45610779565b11610a97576040805162461bcd60e51b815260206004820152601960248201527f41756374696f6e20686173206e6f7420656e6465642079657400000000000000604482015290519081900360640190fd5b600054600160a81b900460ff1615610af6576040805162461bcd60e51b815260206004820152601d60248201527f41756374696f6e206d757374206e6f742062652070726f636573736564000000604482015290519081900360640190fd5b7f00000000000000000000000000000000000000000000000000000000000000006001600160a01b0316634d176a196040518163ffffffff1660e01b815260040160206040518083038186803b158015610b4f57600080fd5b505afa158015610b63573d6000803e3d6000fd5b505050506040513d6020811015610b7957600080fd5b5051610bcc576040805162461bcd60e51b815260206004820152601b60248201527f4e6f7420756e74696c206d61696e2073616c65206973206f7665720000000000604482015290519081900360640190fd5b6000805460ff60a81b1916600160a81b178155600254815260016020819052604080832080548251632142170760e11b81523060048201526001600160a01b0391821660248201526044810194909452915190937f000000000000000000000000000000000000000000000000000000000000000092909216926342842e0e92606480830193919282900301818387803b158015610c6957600080fd5b505af1158015610c7d573d6000803e3d6000fd5b5047925060009150610cbc90506064610cb6847f0000000000000000000000000000000000000000000000000000000000000000611436565b9061148f565b90506000610cca83836113d9565b6040519091506001600160a01b037f0000000000000000000000000000000000000000000000000000000000000000169083156108fc029084906000818181858888f19350505050158015610d23573d6000803e3d6000fd5b506040516001600160a01b037f0000000000000000000000000000000000000000000000000000000000000000169082156108fc029083906000818181858888f19350505050158015610d7a573d6000803e3d6000fd5b5083546001850154604080516001600160a01b039093168352602083019190915280517f461b55d1d8dc46e8964d70b6702bcd692217be42d3279978e0ca123e9426bacd9281900390910190a150505050565b600054600160a01b900460ff1681565b610de56112da565b6001600160a01b0316610df6610ed9565b6001600160a01b031614610e3f576040805162461bcd60e51b81526020600482018190526024820152600080516020611570833981519152604482015290519081900360640190fd5b600080546040516001600160a01b03909116907f8be0079c531659141344cd1fd0a4f28419497f9722a3daafe3b4186f6b6457e0908390a3600080546001600160a01b0319169055565b6002805460009081526001602081905260409091208054918101549201546001600160a01b0390911692565b7f000000000000000000000000000000000000000000000000000000000000000081565b6000546001600160a01b031690565b7f000000000000000000000000000000000000000000000000000000000000000081565b610f146112da565b6001600160a01b0316610f25610ed9565b6001600160a01b031614610f6e576040805162461bcd60e51b81526020600482018190526024820152600080516020611570833981519152604482015290519081900360640190fd5b600054600160a81b900460ff16610fc8576040805162461bcd60e51b8152602060048201526019602482015278105d58dd1a5bdb881b5d5cdd081899481c1c9bd8d95cdcd959603a1b604482015290519081900360640190fd5b610fd0610ed9565b6001600160a01b03166108fc479081150290604051600060405180830381858888f193505050501580156109ad573d6000803e3d6000fd5b6110106112da565b6001600160a01b0316611021610ed9565b6001600160a01b03161461106a576040805162461bcd60e51b81526020600482018190526024820152600080516020611570833981519152604482015290519081900360640190fd5b600054600160a81b900460ff166110c4576040805162461bcd60e51b8152602060048201526019602482015278105d58dd1a5bdb881b5d5cdd081899481c1c9bd8d95cdcd959603a1b604482015290519081900360640190fd5b604080516323b872dd60e01b81523060048201523360248201526044810183905290516001600160a01b038416916323b872dd91606480830192600092919082900301818387803b15801561111857600080fd5b505af115801561112c573d6000803e3d6000fd5b505050505050565b7f000000000000000000000000000000000000000000000000000000000000000081565b60035481565b600080611169610779565b9050807f00000000000000000000000000000000000000000000000000000000000000001115801561119d57506003548111155b156111ac57600191505061077b565b600091505090565b7f000000000000000000000000000000000000000000000000000000000000000081565b6111e06112da565b6001600160a01b03166111f1610ed9565b6001600160a01b03161461123a576040805162461bcd60e51b81526020600482018190526024820152600080516020611570833981519152604482015290519081900360640190fd5b6001600160a01b03811661127f5760405162461bcd60e51b81526004018080602001828103825260268152602001806114f76026913960400191505060405180910390fd5b600080546040516001600160a01b03808516939216917f8be0079c531659141344cd1fd0a4f28419497f9722a3daafe3b4186f6b6457e091a3600080546001600160a01b0319166001600160a01b0392909216919091179055565b3390565b600082820183811015611338576040805162461bcd60e51b815260206004820152601b60248201527f536166654d6174683a206164646974696f6e206f766572666c6f770000000000604482015290519081900360640190fd5b90505b92915050565b6002805460019081019182905560009182526020819052604090912080546001600160a01b0319166001600160a01b038516178155908101829055611384610779565b60028201819055604080516001600160a01b03861681526020810185905280820192909252517f19421268847f42dd61705778018ddfc43bcdce8517e7a630acb12f122c7094819181900360600190a1505050565b600082821115611430576040805162461bcd60e51b815260206004820152601e60248201527f536166654d6174683a207375627472616374696f6e206f766572666c6f770000604482015290519081900360640190fd5b50900390565b6000826114455750600061133b565b8282028284828161145257fe5b04146113385760405162461bcd60e51b815260040180806020018281038252602181526020018061154f6021913960400191505060405180910390fd5b60008082116114e5576040805162461bcd60e51b815260206004820152601a60248201527f536166654d6174683a206469766973696f6e206279207a65726f000000000000604482015290519081900360640190fd5b8183816114ee57fe5b04939250505056fe4f776e61626c653a206e6577206f776e657220697320746865207a65726f2061646472657373426964206d757374206265206174206c65617374206c617374206269642076616c756520706c757320696e6372656d656e74536166654d6174683a206d756c7469706c69636174696f6e206f766572666c6f774f776e61626c653a2063616c6c6572206973206e6f7420746865206f776e6572a2646970667358221220a61e38debc6bddca52c754384ac27e4940e9f1d4ed1bbb769685cc13e3053c5e64736f6c63430007050033436f6e7374727563743a2041756374696f6e20456e64206d75737420626520686967686572207468616e2041756374696f6e205374617274436f6e7374727563743a204f776e65722057616c6c65742063616e6e6f74206265203078436f6e7374727563743a2043726561746f722057616c6c65742063616e6e6f74206265203078436f6e7374727563743a204e465420747261636b657220616464726573732063616e6e6f74206265203078",
  "linkReferences": {},
  "deployedLinkReferences": {}
}