{
  "_format": "hh-sol-artifact-1",
  "contractName": "ECRegistry",
  "sourceName": "contracts/ECRegistry.sol",
  "abi": [
    {
      "anonymous": false,
      "inputs": [
        {
          "indexed": true,
          "internalType": "address",
          "name": "previousOwner",
          "type": "address"
        },
        {
          "indexed": true,
          "internalType": "address",
          "name": "newOwner",
          "type": "address"
        }
      ],
      "name": "OwnershipTransferred",
      "type": "event"
    },
    {
      "anonymous": false,
      "inputs": [
        {
          "indexed": true,
          "internalType": "address",
          "name": "_address",
          "type": "address"
        },
        {
          "indexed": true,
          "internalType": "bool",
          "name": "mode",
          "type": "bool"
        }
      ],
      "name": "contractControllerEvent",
      "type": "event"
    },
    {
      "anonymous": false,
      "inputs": [
        {
          "indexed": true,
          "internalType": "string",
          "name": "_name",
          "type": "string"
        },
        {
          "indexed": true,
          "internalType": "address",
          "name": "_address",
          "type": "address"
        }
      ],
      "name": "newTraitEvent",
      "type": "event"
    },
    {
      "anonymous": false,
      "inputs": [
        {
          "indexed": true,
          "internalType": "uint16",
          "name": "_traitId",
          "type": "uint16"
        },
        {
          "indexed": true,
          "internalType": "uint16",
          "name": "_tokenId",
          "type": "uint16"
        },
        {
          "indexed": true,
          "internalType": "bool",
          "name": "mode",
          "type": "bool"
        }
      ],
      "name": "tokenTraitChangeEvent",
      "type": "event"
    },
    {
      "anonymous": false,
      "inputs": [
        {
          "indexed": true,
          "internalType": "uint16",
          "name": "_id",
          "type": "uint16"
        },
        {
          "indexed": true,
          "internalType": "address",
          "name": "_address",
          "type": "address"
        }
      ],
      "name": "updateTraitImplementerEvent",
      "type": "event"
    },
    {
      "inputs": [
        {
          "internalType": "string[]",
          "name": "_name",
          "type": "string[]"
        },
        {
          "internalType": "address[]",
          "name": "_implementer",
          "type": "address[]"
        }
      ],
      "name": "addTrait",
      "outputs": [],
      "stateMutability": "nonpayable",
      "type": "function"
    },
    {
      "inputs": [
        {
          "internalType": "address",
          "name": "_addr",
          "type": "address"
        },
        {
          "internalType": "uint16",
          "name": "traitID",
          "type": "uint16"
        }
      ],
      "name": "addressCanModifyTrait",
      "outputs": [
        {
          "internalType": "bool",
          "name": "result",
          "type": "bool"
        }
      ],
      "stateMutability": "view",
      "type": "function"
    },
    {
      "inputs": [
        {
          "internalType": "address",
          "name": "",
          "type": "address"
        }
      ],
      "name": "contractController",
      "outputs": [
        {
          "internalType": "bool",
          "name": "",
          "type": "bool"
        }
      ],
      "stateMutability": "view",
      "type": "function"
    },
    {
      "inputs": [
        {
          "internalType": "uint16",
          "name": "traitID",
          "type": "uint16"
        }
      ],
      "name": "getByteAndBit",
      "outputs": [
        {
          "internalType": "uint16",
          "name": "_byte",
          "type": "uint16"
        },
        {
          "internalType": "uint8",
          "name": "_bit",
          "type": "uint8"
        }
      ],
      "stateMutability": "pure",
      "type": "function"
    },
    {
      "inputs": [
        {
          "internalType": "uint16",
          "name": "tokenId",
          "type": "uint16"
        }
      ],
      "name": "getData",
      "outputs": [
        {
          "internalType": "uint8[]",
          "name": "",
          "type": "uint8[]"
        }
      ],
      "stateMutability": "view",
      "type": "function"
    },
    {
      "inputs": [
        {
          "internalType": "uint16",
          "name": "tokenId",
          "type": "uint16"
        },
        {
          "internalType": "uint16",
          "name": "traitID",
          "type": "uint16"
        }
      ],
      "name": "hasTrait",
      "outputs": [
        {
          "internalType": "bool",
          "name": "result",
          "type": "bool"
        }
      ],
      "stateMutability": "view",
      "type": "function"
    },
    {
      "inputs": [],
      "name": "owner",
      "outputs": [
        {
          "internalType": "address",
          "name": "",
          "type": "address"
        }
      ],
      "stateMutability": "view",
      "type": "function"
    },
    {
      "inputs": [],
      "name": "renounceOwnership",
      "outputs": [],
      "stateMutability": "nonpayable",
      "type": "function"
    },
    {
      "inputs": [
        {
          "internalType": "address",
          "name": "_controller",
          "type": "address"
        },
        {
          "internalType": "bool",
          "name": "_mode",
          "type": "bool"
        }
      ],
      "name": "setContractController",
      "outputs": [],
      "stateMutability": "nonpayable",
      "type": "function"
    },
    {
      "inputs": [
        {
          "internalType": "uint16[]",
          "name": "tokenIds",
          "type": "uint16[]"
        },
        {
          "internalType": "uint8[][]",
          "name": "_b",
          "type": "uint8[][]"
        }
      ],
      "name": "setData",
      "outputs": [],
      "stateMutability": "nonpayable",
      "type": "function"
    },
    {
      "inputs": [
        {
          "internalType": "uint16",
          "name": "traitID",
          "type": "uint16"
        },
        {
          "internalType": "uint16[]",
          "name": "tokenIds",
          "type": "uint16[]"
        },
        {
          "internalType": "bool[]",
          "name": "_value",
          "type": "bool[]"
        }
      ],
      "name": "setTrait",
      "outputs": [],
      "stateMutability": "nonpayable",
      "type": "function"
    },
    {
      "inputs": [
        {
          "internalType": "address",
          "name": "_addr",
          "type": "address"
        },
        {
          "internalType": "uint16",
          "name": "traitID",
          "type": "uint16"
        },
        {
          "internalType": "bool",
          "name": "_value",
          "type": "bool"
        }
      ],
      "name": "setTraitControllerAccess",
      "outputs": [],
      "stateMutability": "nonpayable",
      "type": "function"
    },
    {
      "inputs": [
        {
          "internalType": "address[]",
          "name": "_addr",
          "type": "address[]"
        },
        {
          "internalType": "uint8[][]",
          "name": "_b",
          "type": "uint8[][]"
        }
      ],
      "name": "setTraitControllerAccessData",
      "outputs": [],
      "stateMutability": "nonpayable",
      "type": "function"
    },
    {
      "inputs": [
        {
          "internalType": "uint16",
          "name": "",
          "type": "uint16"
        },
        {
          "internalType": "uint256",
          "name": "",
          "type": "uint256"
        }
      ],
      "name": "tokenData",
      "outputs": [
        {
          "internalType": "uint8",
          "name": "",
          "type": "uint8"
        }
      ],
      "stateMutability": "view",
      "type": "function"
    },
    {
      "inputs": [
        {
          "internalType": "address",
          "name": "",
          "type": "address"
        },
        {
          "internalType": "uint256",
          "name": "",
          "type": "uint256"
        }
      ],
      "name": "traitControllerAccess",
      "outputs": [
        {
          "internalType": "uint8",
          "name": "",
          "type": "uint8"
        }
      ],
      "stateMutability": "view",
      "type": "function"
    },
    {
      "inputs": [],
      "name": "traitCount",
      "outputs": [
        {
          "internalType": "uint16",
          "name": "",
          "type": "uint16"
        }
      ],
      "stateMutability": "view",
      "type": "function"
    },
    {
      "inputs": [
        {
          "internalType": "uint16",
          "name": "",
          "type": "uint16"
        }
      ],
      "name": "traits",
      "outputs": [
        {
          "internalType": "string",
          "name": "name",
          "type": "string"
        },
        {
          "internalType": "address",
          "name": "implementer",
          "type": "address"
        }
      ],
      "stateMutability": "view",
      "type": "function"
    },
    {
      "inputs": [
        {
          "internalType": "address",
          "name": "newOwner",
          "type": "address"
        }
      ],
      "name": "transferOwnership",
      "outputs": [],
      "stateMutability": "nonpayable",
      "type": "function"
    },
    {
      "inputs": [
        {
          "internalType": "uint16",
          "name": "_traitId",
          "type": "uint16"
        },
        {
          "internalType": "address",
          "name": "_implementer",
          "type": "address"
        }
      ],
      "name": "updateTraitImplementer",
      "outputs": [],
      "stateMutability": "nonpayable",
      "type": "function"
    }
  ],
  "bytecode": "0x608060405234801561001057600080fd5b5060006100216100c460201b60201c565b9050806000806101000a81548173ffffffffffffffffffffffffffffffffffffffff021916908373ffffffffffffffffffffffffffffffffffffffff1602179055508073ffffffffffffffffffffffffffffffffffffffff16600073ffffffffffffffffffffffffffffffffffffffff167f8be0079c531659141344cd1fd0a4f28419497f9722a3daafe3b4186f6b6457e060405160405180910390a3506100cc565b600033905090565b6129d9806100db6000396000f3fe608060405234801561001057600080fd5b50600436106101215760003560e01c80637f823303116100ad5780639f2eeaff116100715780639f2eeaff1461031a578063b4e0039b1461034a578063c805923a14610366578063c9e317d614610382578063f2fde38b146103b257610121565b80637f82330314610262578063839ae78714610292578063868e50b2146102ae5780638da5cb5b146102de57806398855692146102fc57610121565b806347bf9fcf116100f457806347bf9fcf146101bf578063549f8b4d146101f057806367528ab61461020c578063715018a614610228578063753792b51461023257610121565b806303159f5414610126578063201b1cc81461014257806321c3915d146101725780634356d5b01461018e575b600080fd5b610140600480360381019061013b91906121d8565b6103ce565b005b61015c60048036038101906101579190612039565b610517565b604051610169919061259f565b60405180910390f35b61018c6004803603810190610187919061226d565b610627565b005b6101a860048036038101906101a39190612244565b61085f565b6040516101b6929190612645565b60405180910390f35b6101d960048036038101906101d49190612244565b610880565b6040516101e79291906125ba565b60405180910390f35b61020a60048036038101906102059190612100565b61095c565b005b6102266004803603810190610221919061216c565b610ac9565b005b610230610d8c565b005b61024c60048036038101906102479190612244565b610ef9565b604051610259919061257d565b60405180910390f35b61027c60048036038101906102779190611fd4565b610f92565b604051610289919061259f565b60405180910390f35b6102ac60048036038101906102a79190612075565b610fb2565b005b6102c860048036038101906102c39190612364565b6112df565b6040516102d5919061266e565b60405180910390f35b6102e6611322565b6040516102f39190612562565b60405180910390f35b61030461134b565b604051610311919061262a565b60405180910390f35b610334600480360381019061032f91906120c4565b61135f565b604051610341919061266e565b60405180910390f35b610364600480360381019061035f91906122a9565b6113a2565b005b610380600480360381019061037b9190611ffd565b6116bf565b005b61039c60048036038101906103979190612328565b61180f565b6040516103a9919061259f565b60405180910390f35b6103cc60048036038101906103c79190611fd4565b6118d7565b005b6103d6611322565b73ffffffffffffffffffffffffffffffffffffffff163373ffffffffffffffffffffffffffffffffffffffff1614806104585750600360003373ffffffffffffffffffffffffffffffffffffffff1673ffffffffffffffffffffffffffffffffffffffff16815260200190815260200160002060009054906101000a900460ff165b610497576040517f08c379a000000000000000000000000000000000000000000000000000000000815260040161048e906125ea565b60405180910390fd5b60005b82518161ffff16101561051257818161ffff16815181106104b757fe5b602002602001015160026000858461ffff16815181106104d357fe5b602002602001015161ffff1661ffff1681526020019081526020016000209080519060200190610504929190611ad1565b50808060010191505061049a565b505050565b60008060006105258461085f565b915091506000600460008773ffffffffffffffffffffffffffffffffffffffff1673ffffffffffffffffffffffffffffffffffffffff1681526020019081526020016000208054905090508061ffff166000148061058a57508261ffff168161ffff16105b1561059b5760009350505050610621565b60008260ff1660020a600102600460008973ffffffffffffffffffffffffffffffffffffffff1673ffffffffffffffffffffffffffffffffffffffff1681526020019081526020016000208561ffff16815481106105f557fe5b90600052602060002090602091828204019190069054906101000a900460ff1660ff1616141593505050505b92915050565b61062f611322565b73ffffffffffffffffffffffffffffffffffffffff163373ffffffffffffffffffffffffffffffffffffffff1614806106b15750600360003373ffffffffffffffffffffffffffffffffffffffff1673ffffffffffffffffffffffffffffffffffffffff16815260200190815260200160002060009054906101000a900460ff165b6106f0576040517f08c379a00000000000000000000000000000000000000000000000000000000081526004016106e7906125ea565b60405180910390fd5b600073ffffffffffffffffffffffffffffffffffffffff168173ffffffffffffffffffffffffffffffffffffffff161415610760576040517f08c379a00000000000000000000000000000000000000000000000000000000081526004016107579061260a565b60405180910390fd5b6107aa600160008461ffff1661ffff16815260200190815260200160002060010160009054906101000a900473ffffffffffffffffffffffffffffffffffffffff16836000610fb2565b80600160008461ffff1661ffff16815260200190815260200160002060010160006101000a81548173ffffffffffffffffffffffffffffffffffffffff021916908373ffffffffffffffffffffffffffffffffffffffff16021790555061081381836001610fb2565b8073ffffffffffffffffffffffffffffffffffffffff168261ffff167fe39fa4b03ef5be7405a4cb3269ac5025a77181fd58d1d67ad694b80f79f2b9e560405160405180910390a35050565b60008060088361ffff168161087057fe5b0491506008820283039050915091565b6001602052806000526040600020600091509050806000018054600181600116156101000203166002900480601f01602080910402602001604051908101604052809291908181526020018280546001816001161561010002031660029004801561092c5780601f106109015761010080835404028352916020019161092c565b820191906000526020600020905b81548152906001019060200180831161090f57829003601f168201915b5050505050908060010160009054906101000a900473ffffffffffffffffffffffffffffffffffffffff16905082565b610964611322565b73ffffffffffffffffffffffffffffffffffffffff163373ffffffffffffffffffffffffffffffffffffffff1614806109e65750600360003373ffffffffffffffffffffffffffffffffffffffff1673ffffffffffffffffffffffffffffffffffffffff16815260200190815260200160002060009054906101000a900460ff165b610a25576040517f08c379a0000000000000000000000000000000000000000000000000000000008152600401610a1c906125ea565b60405180910390fd5b60005b82518161ffff161015610ac457818161ffff1681518110610a4557fe5b602002602001015160046000858461ffff1681518110610a6157fe5b602002602001015173ffffffffffffffffffffffffffffffffffffffff1673ffffffffffffffffffffffffffffffffffffffff1681526020019081526020016000209080519060200190610ab6929190611ad1565b508080600101915050610a28565b505050565b610ad1611322565b73ffffffffffffffffffffffffffffffffffffffff163373ffffffffffffffffffffffffffffffffffffffff161480610b535750600360003373ffffffffffffffffffffffffffffffffffffffff1673ffffffffffffffffffffffffffffffffffffffff16815260200190815260200160002060009054906101000a900460ff165b610b92576040517f08c379a0000000000000000000000000000000000000000000000000000000008152600401610b89906125ea565b60405180910390fd5b60005b82518161ffff161015610d8757600080601481819054906101000a900461ffff168092919060010191906101000a81548161ffff021916908361ffff16021790555090506000600160008361ffff1661ffff1681526020019081526020016000209050848361ffff1681518110610c0857fe5b6020026020010151816000019080519060200190610c27929190611b78565b50838361ffff1681518110610c3857fe5b60200260200101518160010160006101000a81548173ffffffffffffffffffffffffffffffffffffffff021916908373ffffffffffffffffffffffffffffffffffffffff160217905550838361ffff1681518110610c9257fe5b602002602001015173ffffffffffffffffffffffffffffffffffffffff16858461ffff1681518110610cc057fe5b6020026020010151604051610cd5919061254b565b60405180910390207f96c3c9ebd4f2b6c16d14d2a7bfcf436bacd223feb0a3a4b1346dda9ddcbe1f8e60405160405180910390a3600073ffffffffffffffffffffffffffffffffffffffff16848461ffff1681518110610d3157fe5b602002602001015173ffffffffffffffffffffffffffffffffffffffff1614610d7857610d77848461ffff1681518110610d6757fe5b6020026020010151836001610fb2565b5b50508080600101915050610b95565b505050565b610d94611ac9565b73ffffffffffffffffffffffffffffffffffffffff16610db2611322565b73ffffffffffffffffffffffffffffffffffffffff1614610e3b576040517f08c379a00000000000000000000000000000000000000000000000000000000081526004018080602001828103825260208152602001807f4f776e61626c653a2063616c6c6572206973206e6f7420746865206f776e657281525060200191505060405180910390fd5b600073ffffffffffffffffffffffffffffffffffffffff1660008054906101000a900473ffffffffffffffffffffffffffffffffffffffff1673ffffffffffffffffffffffffffffffffffffffff167f8be0079c531659141344cd1fd0a4f28419497f9722a3daafe3b4186f6b6457e060405160405180910390a360008060006101000a81548173ffffffffffffffffffffffffffffffffffffffff021916908373ffffffffffffffffffffffffffffffffffffffff160217905550565b6060600260008361ffff1661ffff168152602001908152602001600020805480602002602001604051908101604052809291908181526020018280548015610f8657602002820191906000526020600020906000905b82829054906101000a900460ff1660ff1681526020019060010190602082600001049283019260010382029150808411610f4f5790505b50505050509050919050565b60036020528060005260406000206000915054906101000a900460ff1681565b610fba611322565b73ffffffffffffffffffffffffffffffffffffffff163373ffffffffffffffffffffffffffffffffffffffff16148061103c5750600360003373ffffffffffffffffffffffffffffffffffffffff1673ffffffffffffffffffffffffffffffffffffffff16815260200190815260200160002060009054906101000a900460ff165b61107b576040517f08c379a0000000000000000000000000000000000000000000000000000000008152600401611072906125ea565b60405180910390fd5b600073ffffffffffffffffffffffffffffffffffffffff168373ffffffffffffffffffffffffffffffffffffffff16146112da576000806110bb8461085f565b915091506000836110cd5760006110d0565b60015b90506000600460008873ffffffffffffffffffffffffffffffffffffffff1673ffffffffffffffffffffffffffffffffffffffff168152602001908152602001600020805490509050600081850390508161ffff166000148061113a57508461ffff168261ffff16105b156111e35760005b8161ffff168161ffff16116111e157600460008a73ffffffffffffffffffffffffffffffffffffffff1673ffffffffffffffffffffffffffffffffffffffff168152602001908152602001600020600090806001815401808255809150506001900390600052602060002090602091828204019190069091909190916101000a81548160ff021916908360ff1602179055508080600101915050611142565b505b8360ff168360ff16901b600460008a73ffffffffffffffffffffffffffffffffffffffff1673ffffffffffffffffffffffffffffffffffffffff1681526020019081526020016000208661ffff168154811061123b57fe5b90600052602060002090602091828204019190069054906101000a900460ff1617600460008a73ffffffffffffffffffffffffffffffffffffffff1673ffffffffffffffffffffffffffffffffffffffff1681526020019081526020016000208661ffff16815481106112aa57fe5b90600052602060002090602091828204019190066101000a81548160ff021916908360ff16021790555050505050505b505050565b600260205281600052604060002081815481106112fb57600080fd5b9060005260206000209060209182820401919006915091509054906101000a900460ff1681565b60008060009054906101000a900473ffffffffffffffffffffffffffffffffffffffff16905090565b600060149054906101000a900461ffff1681565b6004602052816000526040600020818154811061137b57600080fd5b9060005260206000209060209182820401919006915091509054906101000a900460ff1681565b826113ab611322565b73ffffffffffffffffffffffffffffffffffffffff163373ffffffffffffffffffffffffffffffffffffffff16148061142d5750600360003373ffffffffffffffffffffffffffffffffffffffff1673ffffffffffffffffffffffffffffffffffffffff16815260200190815260200160002060009054906101000a900460ff165b8061143e575061143d3382610517565b5b61147d576040517f08c379a0000000000000000000000000000000000000000000000000000000008152600401611474906125ea565b60405180910390fd5b6000806114898661085f565b9150915060005b85518161ffff1610156116b6576000858261ffff16815181106114af57fe5b60200260200101516114c25760006114c5565b60015b90506000878361ffff16815181106114d957fe5b602002602001015190506000600260008361ffff1661ffff168152602001908152602001600020805490509050600081870390508161ffff166000148061152757508661ffff168261ffff16105b156115ac5760005b8161ffff168161ffff16116115aa57600260008561ffff1661ffff168152602001908152602001600020600090806001815401808255809150506001900390600052602060002090602091828204019190069091909190916101000a81548160ff021916908360ff160217905550808060010191505061152f565b505b8560ff168460ff16901b600260008561ffff1661ffff1681526020019081526020016000208861ffff16815481106115e057fe5b90600052602060002090602091828204019190069054906101000a900460ff1617600260008561ffff1661ffff1681526020019081526020016000208861ffff168154811061162b57fe5b90600052602060002090602091828204019190066101000a81548160ff021916908360ff160217905550888561ffff168151811061166557fe5b602002602001015115158361ffff168c61ffff167f7f1fb3fd473f75b757edf14e8674b7b63f737efeb62ea26522d414698630464560405160405180910390a4505050508080600101915050611490565b50505050505050565b6116c7611ac9565b73ffffffffffffffffffffffffffffffffffffffff166116e5611322565b73ffffffffffffffffffffffffffffffffffffffff161461176e576040517f08c379a00000000000000000000000000000000000000000000000000000000081526004018080602001828103825260208152602001807f4f776e61626c653a2063616c6c6572206973206e6f7420746865206f776e657281525060200191505060405180910390fd5b80600360008473ffffffffffffffffffffffffffffffffffffffff1673ffffffffffffffffffffffffffffffffffffffff16815260200190815260200160002060006101000a81548160ff0219169083151502179055508015158273ffffffffffffffffffffffffffffffffffffffff167f973bbc2cf6ccb6e84c17881555833ddc6ab07de3420c5bb19022b8553f7a52ae60405160405180910390a35050565b600080600061181d8461085f565b915091506000600260008761ffff1661ffff1681526020019081526020016000208054905090508061ffff166000148061185e57508261ffff168161ffff16105b1561186f57600093505050506118d1565b60008260ff1660020a600102600260008961ffff1661ffff1681526020019081526020016000208561ffff16815481106118a557fe5b90600052602060002090602091828204019190069054906101000a900460ff1660ff1616141593505050505b92915050565b6118df611ac9565b73ffffffffffffffffffffffffffffffffffffffff166118fd611322565b73ffffffffffffffffffffffffffffffffffffffff1614611986576040517f08c379a00000000000000000000000000000000000000000000000000000000081526004018080602001828103825260208152602001807f4f776e61626c653a2063616c6c6572206973206e6f7420746865206f776e657281525060200191505060405180910390fd5b600073ffffffffffffffffffffffffffffffffffffffff168173ffffffffffffffffffffffffffffffffffffffff161415611a0c576040517f08c379a000000000000000000000000000000000000000000000000000000000815260040180806020018281038252602681526020018061297e6026913960400191505060405180910390fd5b8073ffffffffffffffffffffffffffffffffffffffff1660008054906101000a900473ffffffffffffffffffffffffffffffffffffffff1673ffffffffffffffffffffffffffffffffffffffff167f8be0079c531659141344cd1fd0a4f28419497f9722a3daafe3b4186f6b6457e060405160405180910390a3806000806101000a81548173ffffffffffffffffffffffffffffffffffffffff021916908373ffffffffffffffffffffffffffffffffffffffff16021790555050565b600033905090565b82805482825590600052602060002090601f01602090048101928215611b675791602002820160005b83821115611b3857835183826101000a81548160ff021916908360ff1602179055509260200192600101602081600001049283019260010302611afa565b8015611b655782816101000a81549060ff0219169055600101602081600001049283019260010302611b38565b505b509050611b749190611c06565b5090565b828054600181600116156101000203166002900490600052602060002090601f016020900481019282611bae5760008555611bf5565b82601f10611bc757805160ff1916838001178555611bf5565b82800160010185558215611bf5579182015b82811115611bf4578251825591602001919060010190611bd9565b5b509050611c029190611c06565b5090565b5b80821115611c1f576000816000905550600101611c07565b5090565b600081359050611c328161290a565b92915050565b600082601f830112611c4957600080fd5b8135611c5c611c57826126ba565b612689565b91508181835260208401935060208101905083856020840282011115611c8157600080fd5b60005b83811015611cb15781611c978882611c23565b845260208401935060208301925050600181019050611c84565b5050505092915050565b600082601f830112611ccc57600080fd5b8135611cdf611cda826126e6565b612689565b9150818183526020840193506020810190508360005b83811015611d255781358601611d0b8882611ea9565b845260208401935060208301925050600181019050611cf5565b5050505092915050565b600082601f830112611d4057600080fd5b8135611d53611d4e82612712565b612689565b91508181835260208401935060208101905083856020840282011115611d7857600080fd5b60005b83811015611da85781611d8e8882611f2c565b845260208401935060208301925050600181019050611d7b565b5050505092915050565b600082601f830112611dc357600080fd5b8135611dd6611dd18261273e565b612689565b9150818183526020840193506020810190508360005b83811015611e1c5781358601611e028882611f41565b845260208401935060208301925050600181019050611dec565b5050505092915050565b600082601f830112611e3757600080fd5b8135611e4a611e458261276a565b612689565b91508181835260208401935060208101905083856020840282011115611e6f57600080fd5b60005b83811015611e9f5781611e858882611f95565b845260208401935060208301925050600181019050611e72565b5050505092915050565b600082601f830112611eba57600080fd5b8135611ecd611ec882612796565b612689565b91508181835260208401935060208101905083856020840282011115611ef257600080fd5b60005b83811015611f225781611f088882611fbf565b845260208401935060208301925050600181019050611ef5565b5050505092915050565b600081359050611f3b81612921565b92915050565b600082601f830112611f5257600080fd5b8135611f65611f60826127c2565b612689565b91508082526020830160208301858383011115611f8157600080fd5b611f8c8382846128b5565b50505092915050565b600081359050611fa481612938565b92915050565b600081359050611fb98161294f565b92915050565b600081359050611fce81612966565b92915050565b600060208284031215611fe657600080fd5b6000611ff484828501611c23565b91505092915050565b6000806040838503121561201057600080fd5b600061201e85828601611c23565b925050602061202f85828601611f2c565b9150509250929050565b6000806040838503121561204c57600080fd5b600061205a85828601611c23565b925050602061206b85828601611f95565b9150509250929050565b60008060006060848603121561208a57600080fd5b600061209886828701611c23565b93505060206120a986828701611f95565b92505060406120ba86828701611f2c565b9150509250925092565b600080604083850312156120d757600080fd5b60006120e585828601611c23565b92505060206120f685828601611faa565b9150509250929050565b6000806040838503121561211357600080fd5b600083013567ffffffffffffffff81111561212d57600080fd5b61213985828601611c38565b925050602083013567ffffffffffffffff81111561215657600080fd5b61216285828601611cbb565b9150509250929050565b6000806040838503121561217f57600080fd5b600083013567ffffffffffffffff81111561219957600080fd5b6121a585828601611db2565b925050602083013567ffffffffffffffff8111156121c257600080fd5b6121ce85828601611c38565b9150509250929050565b600080604083850312156121eb57600080fd5b600083013567ffffffffffffffff81111561220557600080fd5b61221185828601611e26565b925050602083013567ffffffffffffffff81111561222e57600080fd5b61223a85828601611cbb565b9150509250929050565b60006020828403121561225657600080fd5b600061226484828501611f95565b91505092915050565b6000806040838503121561228057600080fd5b600061228e85828601611f95565b925050602061229f85828601611c23565b9150509250929050565b6000806000606084860312156122be57600080fd5b60006122cc86828701611f95565b935050602084013567ffffffffffffffff8111156122e957600080fd5b6122f586828701611e26565b925050604084013567ffffffffffffffff81111561231257600080fd5b61231e86828701611d2f565b9150509250925092565b6000806040838503121561233b57600080fd5b600061234985828601611f95565b925050602061235a85828601611f95565b9150509250929050565b6000806040838503121561237757600080fd5b600061238585828601611f95565b925050602061239685828601611faa565b9150509250929050565b60006123ac838361252d565b60208301905092915050565b6123c181612852565b82525050565b60006123d282612802565b6123dc8185612825565b93506123e7836127f2565b8060005b838110156124185781516123ff88826123a0565b975061240a83612818565b9250506001810190506123eb565b5085935050505092915050565b61242e81612864565b82525050565b600061243f8261280d565b6124498185612836565b93506124598185602086016128c4565b612462816128f9565b840191505092915050565b60006124788261280d565b6124828185612847565b93506124928185602086016128c4565b80840191505092915050565b60006124ab600e83612836565b91507f4e6f7420417574686f72697365640000000000000000000000000000000000006000830152602082019050919050565b60006124eb601383612836565b91507f43616e6e6f7420626520616464726573732030000000000000000000000000006000830152602082019050919050565b61252781612870565b82525050565b612536816128a8565b82525050565b612545816128a8565b82525050565b6000612557828461246d565b915081905092915050565b600060208201905061257760008301846123b8565b92915050565b6000602082019050818103600083015261259781846123c7565b905092915050565b60006020820190506125b46000830184612425565b92915050565b600060408201905081810360008301526125d48185612434565b90506125e360208301846123b8565b9392505050565b600060208201905081810360008301526126038161249e565b9050919050565b60006020820190508181036000830152612623816124de565b9050919050565b600060208201905061263f600083018461251e565b92915050565b600060408201905061265a600083018561251e565b612667602083018461253c565b9392505050565b6000602082019050612683600083018461253c565b92915050565b6000604051905081810181811067ffffffffffffffff821117156126b0576126af6128f7565b5b8060405250919050565b600067ffffffffffffffff8211156126d5576126d46128f7565b5b602082029050602081019050919050565b600067ffffffffffffffff821115612701576127006128f7565b5b602082029050602081019050919050565b600067ffffffffffffffff82111561272d5761272c6128f7565b5b602082029050602081019050919050565b600067ffffffffffffffff821115612759576127586128f7565b5b602082029050602081019050919050565b600067ffffffffffffffff821115612785576127846128f7565b5b602082029050602081019050919050565b600067ffffffffffffffff8211156127b1576127b06128f7565b5b602082029050602081019050919050565b600067ffffffffffffffff8211156127dd576127dc6128f7565b5b601f19601f8301169050602081019050919050565b6000819050602082019050919050565b600081519050919050565b600081519050919050565b6000602082019050919050565b600082825260208201905092915050565b600082825260208201905092915050565b600081905092915050565b600061285d8261287e565b9050919050565b60008115159050919050565b600061ffff82169050919050565b600073ffffffffffffffffffffffffffffffffffffffff82169050919050565b6000819050919050565b600060ff82169050919050565b82818337600083830152505050565b60005b838110156128e25780820151818401526020810190506128c7565b838111156128f1576000848401525b50505050565bfe5b6000601f19601f8301169050919050565b61291381612852565b811461291e57600080fd5b50565b61292a81612864565b811461293557600080fd5b50565b61294181612870565b811461294c57600080fd5b50565b6129588161289e565b811461296357600080fd5b50565b61296f816128a8565b811461297a57600080fd5b5056fe4f776e61626c653a206e6577206f776e657220697320746865207a65726f2061646472657373a264697066735822122027e7409e82b9ea66518d18abf76a3e4a6e5aa9ae4508e0ba402fc934bfd283ad64736f6c63430007050033",
  "linkReferences": {},
  "deployedLinkReferences": {}
}